{
  "_format": "hh-sol-artifact-1",
  "contractName": "NFT",
  "sourceName": "contracts/NFT.sol",
  "abi": [
    {
      "inputs": [],
      "stateMutability": "nonpayable",
      "type": "constructor"
    },
    {
      "anonymous": false,
      "inputs": [
        {
          "indexed": true,
          "internalType": "address",
          "name": "owner",
          "type": "address"
        },
        {
          "indexed": true,
          "internalType": "address",
          "name": "approved",
          "type": "address"
        },
        {
          "indexed": true,
          "internalType": "uint256",
          "name": "tokenId",
          "type": "uint256"
        }
      ],
      "name": "Approval",
      "type": "event"
    },
    {
      "anonymous": false,
      "inputs": [
        {
          "indexed": true,
          "internalType": "address",
          "name": "owner",
          "type": "address"
        },
        {
          "indexed": true,
          "internalType": "address",
          "name": "operator",
          "type": "address"
        },
        {
          "indexed": false,
          "internalType": "bool",
          "name": "approved",
          "type": "bool"
        }
      ],
      "name": "ApprovalForAll",
      "type": "event"
    },
    {
      "anonymous": false,
      "inputs": [
        {
          "indexed": true,
          "internalType": "address",
          "name": "previousOwner",
          "type": "address"
        },
        {
          "indexed": true,
          "internalType": "address",
          "name": "newOwner",
          "type": "address"
        }
      ],
      "name": "OwnershipTransferred",
      "type": "event"
    },
    {
      "anonymous": false,
      "inputs": [
        {
          "indexed": true,
          "internalType": "address",
          "name": "from",
          "type": "address"
        },
        {
          "indexed": true,
          "internalType": "address",
          "name": "to",
          "type": "address"
        },
        {
          "indexed": true,
          "internalType": "uint256",
          "name": "tokenId",
          "type": "uint256"
        }
      ],
      "name": "Transfer",
      "type": "event"
    },
    {
      "inputs": [],
      "name": "MINT_PRICE",
      "outputs": [
        {
          "internalType": "uint256",
          "name": "",
          "type": "uint256"
        }
      ],
      "stateMutability": "view",
      "type": "function"
    },
    {
      "inputs": [],
      "name": "TOTAL_SUPPLY",
      "outputs": [
        {
          "internalType": "uint256",
          "name": "",
          "type": "uint256"
        }
      ],
      "stateMutability": "view",
      "type": "function"
    },
    {
      "inputs": [
        {
          "internalType": "address",
          "name": "to",
          "type": "address"
        },
        {
          "internalType": "uint256",
          "name": "tokenId",
          "type": "uint256"
        }
      ],
      "name": "approve",
      "outputs": [],
      "stateMutability": "nonpayable",
      "type": "function"
    },
    {
      "inputs": [
        {
          "internalType": "address",
          "name": "owner",
          "type": "address"
        }
      ],
      "name": "balanceOf",
      "outputs": [
        {
          "internalType": "uint256",
          "name": "",
          "type": "uint256"
        }
      ],
      "stateMutability": "view",
      "type": "function"
    },
    {
      "inputs": [],
      "name": "baseTokenURI",
      "outputs": [
        {
          "internalType": "string",
          "name": "",
          "type": "string"
        }
      ],
      "stateMutability": "view",
      "type": "function"
    },
    {
      "inputs": [
        {
          "internalType": "uint256",
          "name": "tokenId",
          "type": "uint256"
        }
      ],
      "name": "getApproved",
      "outputs": [
        {
          "internalType": "address",
          "name": "",
          "type": "address"
        }
      ],
      "stateMutability": "view",
      "type": "function"
    },
    {
      "inputs": [
        {
          "internalType": "address",
          "name": "owner",
          "type": "address"
        },
        {
          "internalType": "address",
          "name": "operator",
          "type": "address"
        }
      ],
      "name": "isApprovedForAll",
      "outputs": [
        {
          "internalType": "bool",
          "name": "",
          "type": "bool"
        }
      ],
      "stateMutability": "view",
      "type": "function"
    },
    {
      "inputs": [
        {
          "internalType": "address",
          "name": "recipient",
          "type": "address"
        }
      ],
      "name": "mintTo",
      "outputs": [
        {
          "internalType": "uint256",
          "name": "",
          "type": "uint256"
        }
      ],
      "stateMutability": "nonpayable",
      "type": "function"
    },
    {
      "inputs": [],
      "name": "name",
      "outputs": [
        {
          "internalType": "string",
          "name": "",
          "type": "string"
        }
      ],
      "stateMutability": "view",
      "type": "function"
    },
    {
      "inputs": [],
      "name": "owner",
      "outputs": [
        {
          "internalType": "address",
          "name": "",
          "type": "address"
        }
      ],
      "stateMutability": "view",
      "type": "function"
    },
    {
      "inputs": [
        {
          "internalType": "uint256",
          "name": "tokenId",
          "type": "uint256"
        }
      ],
      "name": "ownerOf",
      "outputs": [
        {
          "internalType": "address",
          "name": "",
          "type": "address"
        }
      ],
      "stateMutability": "view",
      "type": "function"
    },
    {
      "inputs": [
        {
          "internalType": "address",
          "name": "dest",
          "type": "address"
        }
      ],
      "name": "payments",
      "outputs": [
        {
          "internalType": "uint256",
          "name": "",
          "type": "uint256"
        }
      ],
      "stateMutability": "view",
      "type": "function"
    },
    {
      "inputs": [],
      "name": "renounceOwnership",
      "outputs": [],
      "stateMutability": "nonpayable",
      "type": "function"
    },
    {
      "inputs": [
        {
          "internalType": "address",
          "name": "from",
          "type": "address"
        },
        {
          "internalType": "address",
          "name": "to",
          "type": "address"
        },
        {
          "internalType": "uint256",
          "name": "tokenId",
          "type": "uint256"
        }
      ],
      "name": "safeTransferFrom",
      "outputs": [],
      "stateMutability": "nonpayable",
      "type": "function"
    },
    {
      "inputs": [
        {
          "internalType": "address",
          "name": "from",
          "type": "address"
        },
        {
          "internalType": "address",
          "name": "to",
          "type": "address"
        },
        {
          "internalType": "uint256",
          "name": "tokenId",
          "type": "uint256"
        },
        {
          "internalType": "bytes",
          "name": "_data",
          "type": "bytes"
        }
      ],
      "name": "safeTransferFrom",
      "outputs": [],
      "stateMutability": "nonpayable",
      "type": "function"
    },
    {
      "inputs": [
        {
          "internalType": "address",
          "name": "operator",
          "type": "address"
        },
        {
          "internalType": "bool",
          "name": "approved",
          "type": "bool"
        }
      ],
      "name": "setApprovalForAll",
      "outputs": [],
      "stateMutability": "nonpayable",
      "type": "function"
    },
    {
      "inputs": [
        {
          "internalType": "string",
          "name": "_baseTokenURI",
          "type": "string"
        }
      ],
      "name": "setBaseTokenURI",
      "outputs": [],
      "stateMutability": "nonpayable",
      "type": "function"
    },
    {
      "inputs": [
        {
          "internalType": "bytes4",
          "name": "interfaceId",
          "type": "bytes4"
        }
      ],
      "name": "supportsInterface",
      "outputs": [
        {
          "internalType": "bool",
          "name": "",
          "type": "bool"
        }
      ],
      "stateMutability": "view",
      "type": "function"
    },
    {
      "inputs": [],
      "name": "symbol",
      "outputs": [
        {
          "internalType": "string",
          "name": "",
          "type": "string"
        }
      ],
      "stateMutability": "view",
      "type": "function"
    },
    {
      "inputs": [
        {
          "internalType": "uint256",
          "name": "tokenId",
          "type": "uint256"
        }
      ],
      "name": "tokenURI",
      "outputs": [
        {
          "internalType": "string",
          "name": "",
          "type": "string"
        }
      ],
      "stateMutability": "view",
      "type": "function"
    },
    {
      "inputs": [
        {
          "internalType": "address",
          "name": "from",
          "type": "address"
        },
        {
          "internalType": "address",
          "name": "to",
          "type": "address"
        },
        {
          "internalType": "uint256",
          "name": "tokenId",
          "type": "uint256"
        }
      ],
      "name": "transferFrom",
      "outputs": [],
      "stateMutability": "nonpayable",
      "type": "function"
    },
    {
      "inputs": [
        {
          "internalType": "address",
          "name": "newOwner",
          "type": "address"
        }
      ],
      "name": "transferOwnership",
      "outputs": [],
      "stateMutability": "nonpayable",
      "type": "function"
    },
    {
      "inputs": [
        {
          "internalType": "address payable",
          "name": "payee",
          "type": "address"
        }
      ],
      "name": "withdrawPayments",
      "outputs": [],
      "stateMutability": "nonpayable",
      "type": "function"
    }
  ],
  "bytecode": "0x60a06040523480156200001157600080fd5b506040518060400160405280601081526020017f5068616e74614265617220436c6f6e65000000000000000000000000000000008152506040518060400160405280600381526020017f4e4654000000000000000000000000000000000000000000000000000000000081525081600090805190602001906200009692919062000208565b508060019080519060200190620000af92919062000208565b505050604051620000c09062000299565b604051809103906000f080158015620000dd573d6000803e3d6000fd5b5073ffffffffffffffffffffffffffffffffffffffff1660808173ffffffffffffffffffffffffffffffffffffffff1660601b8152505062000134620001286200013a60201b60201c565b6200014260201b60201c565b6200032b565b600033905090565b6000600660009054906101000a900473ffffffffffffffffffffffffffffffffffffffff16905081600660006101000a81548173ffffffffffffffffffffffffffffffffffffffff021916908373ffffffffffffffffffffffffffffffffffffffff1602179055508173ffffffffffffffffffffffffffffffffffffffff168173ffffffffffffffffffffffffffffffffffffffff167f8be0079c531659141344cd1fd0a4f28419497f9722a3daafe3b4186f6b6457e060405160405180910390a35050565b8280546200021690620002c6565b90600052602060002090601f0160209004810192826200023a576000855562000286565b82601f106200025557805160ff191683800117855562000286565b8280016001018555821562000286579182015b828111156200028557825182559160200191906001019062000268565b5b509050620002959190620002a7565b5090565b610ccd806200351a83390190565b5b80821115620002c2576000816000905550600101620002a8565b5090565b60006002820490506001821680620002df57607f821691505b60208210811415620002f657620002f5620002fc565b5b50919050565b7f4e487b7100000000000000000000000000000000000000000000000000000000600052602260045260246000fd5b60805160601c6131c96200035160003960008181610e0f015261151c01526131c96000f3fe608060405234801561001057600080fd5b506004361061014d5760003560e01c8063755edd17116100c3578063c002d23d1161007c578063c002d23d14610388578063c87b56dd146103a6578063d547cfb7146103d6578063e2982c21146103f4578063e985e9c514610424578063f2fde38b146104545761014d565b8063755edd17146102c65780638da5cb5b146102f6578063902d55a51461031457806395d89b4114610332578063a22cb46514610350578063b88d4fde1461036c5761014d565b806330176e131161011557806330176e131461020857806331b3eb941461022457806342842e0e146102405780636352211e1461025c57806370a082311461028c578063715018a6146102bc5761014d565b806301ffc9a71461015257806306fdde0314610182578063081812fc146101a0578063095ea7b3146101d057806323b872dd146101ec575b600080fd5b61016c60048036038101906101679190612266565b610470565b6040516101799190612ad8565b60405180910390f35b61018a610552565b6040516101979190612af3565b60405180910390f35b6101ba60048036038101906101b591906122f9565b6105e4565b6040516101c79190612a56565b60405180910390f35b6101ea60048036038101906101e5919061222a565b610669565b005b61020660048036038101906102019190612124565b610781565b005b610222600480360381019061021d91906122b8565b6107e1565b005b61023e600480360381019061023991906120bf565b610877565b005b61025a60048036038101906102559190612124565b6108ff565b005b610276600480360381019061027191906122f9565b61091f565b6040516102839190612a56565b60405180910390f35b6102a660048036038101906102a19190612096565b6109d1565b6040516102b39190612d35565b60405180910390f35b6102c4610a89565b005b6102e060048036038101906102db9190612096565b610b11565b6040516102ed9190612d35565b60405180910390f35b6102fe610b90565b60405161030b9190612a56565b60405180910390f35b61031c610bba565b6040516103299190612d35565b60405180910390f35b61033a610bc0565b6040516103479190612af3565b60405180910390f35b61036a600480360381019061036591906121ee565b610c52565b005b61038660048036038101906103819190612173565b610c68565b005b610390610cca565b60405161039d9190612d35565b60405180910390f35b6103c060048036038101906103bb91906122f9565b610cd6565b6040516103cd9190612af3565b60405180910390f35b6103de610d7d565b6040516103eb9190612af3565b60405180910390f35b61040e60048036038101906104099190612096565b610e0b565b60405161041b9190612d35565b60405180910390f35b61043e600480360381019061043991906120e8565b610ebd565b60405161044b9190612ad8565b60405180910390f35b61046e60048036038101906104699190612096565b610f51565b005b60007f80ac58cd000000000000000000000000000000000000000000000000000000007bffffffffffffffffffffffffffffffffffffffffffffffffffffffff1916827bffffffffffffffffffffffffffffffffffffffffffffffffffffffff1916148061053b57507f5b5e139f000000000000000000000000000000000000000000000000000000007bffffffffffffffffffffffffffffffffffffffffffffffffffffffff1916827bffffffffffffffffffffffffffffffffffffffffffffffffffffffff1916145b8061054b575061054a82611049565b5b9050919050565b60606000805461056190612fa7565b80601f016020809104026020016040519081016040528092919081815260200182805461058d90612fa7565b80156105da5780601f106105af576101008083540402835291602001916105da565b820191906000526020600020905b8154815290600101906020018083116105bd57829003601f168201915b5050505050905090565b60006105ef826110b3565b61062e576040517f08c379a000000000000000000000000000000000000000000000000000000000815260040161062590612c75565b60405180910390fd5b6004600083815260200190815260200160002060009054906101000a900473ffffffffffffffffffffffffffffffffffffffff169050919050565b60006106748261091f565b90508073ffffffffffffffffffffffffffffffffffffffff168373ffffffffffffffffffffffffffffffffffffffff1614156106e5576040517f08c379a00000000000000000000000000000000000000000000000000000000081526004016106dc90612cf5565b60405180910390fd5b8073ffffffffffffffffffffffffffffffffffffffff1661070461111f565b73ffffffffffffffffffffffffffffffffffffffff16148061073357506107328161072d61111f565b610ebd565b5b610772576040517f08c379a000000000000000000000000000000000000000000000000000000000815260040161076990612bd5565b60405180910390fd5b61077c8383611127565b505050565b61079261078c61111f565b826111e0565b6107d1576040517f08c379a00000000000000000000000000000000000000000000000000000000081526004016107c890612d15565b60405180910390fd5b6107dc8383836112be565b505050565b6107e961111f565b73ffffffffffffffffffffffffffffffffffffffff16610807610b90565b73ffffffffffffffffffffffffffffffffffffffff161461085d576040517f08c379a000000000000000000000000000000000000000000000000000000000815260040161085490612c95565b60405180910390fd5b8060089080519060200190610873929190611e90565b5050565b61087f61111f565b73ffffffffffffffffffffffffffffffffffffffff1661089d610b90565b73ffffffffffffffffffffffffffffffffffffffff16146108f3576040517f08c379a00000000000000000000000000000000000000000000000000000000081526004016108ea90612c95565b60405180910390fd5b6108fc8161151a565b50565b61091a83838360405180602001604052806000815250610c68565b505050565b6000806002600084815260200190815260200160002060009054906101000a900473ffffffffffffffffffffffffffffffffffffffff169050600073ffffffffffffffffffffffffffffffffffffffff168173ffffffffffffffffffffffffffffffffffffffff1614156109c8576040517f08c379a00000000000000000000000000000000000000000000000000000000081526004016109bf90612c15565b60405180910390fd5b80915050919050565b60008073ffffffffffffffffffffffffffffffffffffffff168273ffffffffffffffffffffffffffffffffffffffff161415610a42576040517f08c379a0000000000000000000000000000000000000000000000000000000008152600401610a3990612bf5565b60405180910390fd5b600360008373ffffffffffffffffffffffffffffffffffffffff1673ffffffffffffffffffffffffffffffffffffffff168152602001908152602001600020549050919050565b610a9161111f565b73ffffffffffffffffffffffffffffffffffffffff16610aaf610b90565b73ffffffffffffffffffffffffffffffffffffffff1614610b05576040517f08c379a0000000000000000000000000000000000000000000000000000000008152600401610afc90612c95565b60405180910390fd5b610b0f60006115a8565b565b600080610b1e600761166e565b90506127108110610b64576040517f08c379a0000000000000000000000000000000000000000000000000000000008152600401610b5b90612c35565b60405180910390fd5b610b6e600761167c565b6000610b7a600761166e565b9050610b868482611692565b8092505050919050565b6000600660009054906101000a900473ffffffffffffffffffffffffffffffffffffffff16905090565b61271081565b606060018054610bcf90612fa7565b80601f0160208091040260200160405190810160405280929190818152602001828054610bfb90612fa7565b8015610c485780601f10610c1d57610100808354040283529160200191610c48565b820191906000526020600020905b815481529060010190602001808311610c2b57829003601f168201915b5050505050905090565b610c64610c5d61111f565b83836116b0565b5050565b610c79610c7361111f565b836111e0565b610cb8576040517f08c379a0000000000000000000000000000000000000000000000000000000008152600401610caf90612d15565b60405180910390fd5b610cc48484848461181d565b50505050565b67011c37937e08000081565b6060610ce1826110b3565b610d20576040517f08c379a0000000000000000000000000000000000000000000000000000000008152600401610d1790612cd5565b60405180910390fd5b6000610d2a611879565b90506000815111610d4a5760405180602001604052806000815250610d75565b80610d548461190b565b604051602001610d65929190612a32565b6040516020818303038152906040525b915050919050565b60088054610d8a90612fa7565b80601f0160208091040260200160405190810160405280929190818152602001828054610db690612fa7565b8015610e035780601f10610dd857610100808354040283529160200191610e03565b820191906000526020600020905b815481529060010190602001808311610de657829003601f168201915b505050505081565b60007f000000000000000000000000000000000000000000000000000000000000000073ffffffffffffffffffffffffffffffffffffffff1663e3a9db1a836040518263ffffffff1660e01b8152600401610e669190612a56565b60206040518083038186803b158015610e7e57600080fd5b505afa158015610e92573d6000803e3d6000fd5b505050506040513d601f19601f82011682018060405250810190610eb69190612322565b9050919050565b6000600560008473ffffffffffffffffffffffffffffffffffffffff1673ffffffffffffffffffffffffffffffffffffffff16815260200190815260200160002060008373ffffffffffffffffffffffffffffffffffffffff1673ffffffffffffffffffffffffffffffffffffffff16815260200190815260200160002060009054906101000a900460ff16905092915050565b610f5961111f565b73ffffffffffffffffffffffffffffffffffffffff16610f77610b90565b73ffffffffffffffffffffffffffffffffffffffff1614610fcd576040517f08c379a0000000000000000000000000000000000000000000000000000000008152600401610fc490612c95565b60405180910390fd5b600073ffffffffffffffffffffffffffffffffffffffff168173ffffffffffffffffffffffffffffffffffffffff16141561103d576040517f08c379a000000000000000000000000000000000000000000000000000000000815260040161103490612b35565b60405180910390fd5b611046816115a8565b50565b60007f01ffc9a7000000000000000000000000000000000000000000000000000000007bffffffffffffffffffffffffffffffffffffffffffffffffffffffff1916827bffffffffffffffffffffffffffffffffffffffffffffffffffffffff1916149050919050565b60008073ffffffffffffffffffffffffffffffffffffffff166002600084815260200190815260200160002060009054906101000a900473ffffffffffffffffffffffffffffffffffffffff1673ffffffffffffffffffffffffffffffffffffffff1614159050919050565b600033905090565b816004600083815260200190815260200160002060006101000a81548173ffffffffffffffffffffffffffffffffffffffff021916908373ffffffffffffffffffffffffffffffffffffffff160217905550808273ffffffffffffffffffffffffffffffffffffffff1661119a8361091f565b73ffffffffffffffffffffffffffffffffffffffff167f8c5be1e5ebec7d5bd14f71427d1e84f3dd0314c0f7b2291e5b200ac8c7c3b92560405160405180910390a45050565b60006111eb826110b3565b61122a576040517f08c379a000000000000000000000000000000000000000000000000000000000815260040161122190612bb5565b60405180910390fd5b60006112358361091f565b90508073ffffffffffffffffffffffffffffffffffffffff168473ffffffffffffffffffffffffffffffffffffffff1614806112a457508373ffffffffffffffffffffffffffffffffffffffff1661128c846105e4565b73ffffffffffffffffffffffffffffffffffffffff16145b806112b557506112b48185610ebd565b5b91505092915050565b8273ffffffffffffffffffffffffffffffffffffffff166112de8261091f565b73ffffffffffffffffffffffffffffffffffffffff1614611334576040517f08c379a000000000000000000000000000000000000000000000000000000000815260040161132b90612cb5565b60405180910390fd5b600073ffffffffffffffffffffffffffffffffffffffff168273ffffffffffffffffffffffffffffffffffffffff1614156113a4576040517f08c379a000000000000000000000000000000000000000000000000000000000815260040161139b90612b75565b60405180910390fd5b6113af838383611ab8565b6113ba600082611127565b6001600360008573ffffffffffffffffffffffffffffffffffffffff1673ffffffffffffffffffffffffffffffffffffffff168152602001908152602001600020600082825461140a9190612eab565b925050819055506001600360008473ffffffffffffffffffffffffffffffffffffffff1673ffffffffffffffffffffffffffffffffffffffff16815260200190815260200160002060008282546114619190612e24565b92505081905550816002600083815260200190815260200160002060006101000a81548173ffffffffffffffffffffffffffffffffffffffff021916908373ffffffffffffffffffffffffffffffffffffffff160217905550808273ffffffffffffffffffffffffffffffffffffffff168473ffffffffffffffffffffffffffffffffffffffff167fddf252ad1be2c89b69c2b068fc378daa952ba7f163c4a11628f55a4df523b3ef60405160405180910390a4505050565b7f000000000000000000000000000000000000000000000000000000000000000073ffffffffffffffffffffffffffffffffffffffff166351cff8d9826040518263ffffffff1660e01b81526004016115739190612a71565b600060405180830381600087803b15801561158d57600080fd5b505af11580156115a1573d6000803e3d6000fd5b5050505050565b6000600660009054906101000a900473ffffffffffffffffffffffffffffffffffffffff16905081600660006101000a81548173ffffffffffffffffffffffffffffffffffffffff021916908373ffffffffffffffffffffffffffffffffffffffff1602179055508173ffffffffffffffffffffffffffffffffffffffff168173ffffffffffffffffffffffffffffffffffffffff167f8be0079c531659141344cd1fd0a4f28419497f9722a3daafe3b4186f6b6457e060405160405180910390a35050565b600081600001549050919050565b6001816000016000828254019250508190555050565b6116ac828260405180602001604052806000815250611abd565b5050565b8173ffffffffffffffffffffffffffffffffffffffff168373ffffffffffffffffffffffffffffffffffffffff16141561171f576040517f08c379a000000000000000000000000000000000000000000000000000000000815260040161171690612b95565b60405180910390fd5b80600560008573ffffffffffffffffffffffffffffffffffffffff1673ffffffffffffffffffffffffffffffffffffffff16815260200190815260200160002060008473ffffffffffffffffffffffffffffffffffffffff1673ffffffffffffffffffffffffffffffffffffffff16815260200190815260200160002060006101000a81548160ff0219169083151502179055508173ffffffffffffffffffffffffffffffffffffffff168373ffffffffffffffffffffffffffffffffffffffff167f17307eab39ab6107e8899845ad3d59bd9653f200f220920489ca2b5937696c31836040516118109190612ad8565b60405180910390a3505050565b6118288484846112be565b61183484848484611b18565b611873576040517f08c379a000000000000000000000000000000000000000000000000000000000815260040161186a90612b15565b60405180910390fd5b50505050565b60606008805461188890612fa7565b80601f01602080910402602001604051908101604052809291908181526020018280546118b490612fa7565b80156119015780601f106118d657610100808354040283529160200191611901565b820191906000526020600020905b8154815290600101906020018083116118e457829003601f168201915b5050505050905090565b60606000821415611953576040518060400160405280600181526020017f30000000000000000000000000000000000000000000000000000000000000008152509050611ab3565b600082905060005b6000821461198557808061196e90612fd9565b915050600a8261197e9190612e7a565b915061195b565b60008167ffffffffffffffff8111156119c7577f4e487b7100000000000000000000000000000000000000000000000000000000600052604160045260246000fd5b6040519080825280601f01601f1916602001820160405280156119f95781602001600182028036833780820191505090505b5090505b60008514611aac57600182611a129190612eab565b9150600a85611a219190613022565b6030611a2d9190612e24565b60f81b818381518110611a69577f4e487b7100000000000000000000000000000000000000000000000000000000600052603260045260246000fd5b60200101907effffffffffffffffffffffffffffffffffffffffffffffffffffffffffffff1916908160001a905350600a85611aa59190612e7a565b94506119fd565b8093505050505b919050565b505050565b611ac78383611caf565b611ad46000848484611b18565b611b13576040517f08c379a0000000000000000000000000000000000000000000000000000000008152600401611b0a90612b15565b60405180910390fd5b505050565b6000611b398473ffffffffffffffffffffffffffffffffffffffff16611e7d565b15611ca2578373ffffffffffffffffffffffffffffffffffffffff1663150b7a02611b6261111f565b8786866040518563ffffffff1660e01b8152600401611b849493929190612a8c565b602060405180830381600087803b158015611b9e57600080fd5b505af1925050508015611bcf57506040513d601f19601f82011682018060405250810190611bcc919061228f565b60015b611c52573d8060008114611bff576040519150601f19603f3d011682016040523d82523d6000602084013e611c04565b606091505b50600081511415611c4a576040517f08c379a0000000000000000000000000000000000000000000000000000000008152600401611c4190612b15565b60405180910390fd5b805181602001fd5b63150b7a0260e01b7bffffffffffffffffffffffffffffffffffffffffffffffffffffffff1916817bffffffffffffffffffffffffffffffffffffffffffffffffffffffff191614915050611ca7565b600190505b949350505050565b600073ffffffffffffffffffffffffffffffffffffffff168273ffffffffffffffffffffffffffffffffffffffff161415611d1f576040517f08c379a0000000000000000000000000000000000000000000000000000000008152600401611d1690612c55565b60405180910390fd5b611d28816110b3565b15611d68576040517f08c379a0000000000000000000000000000000000000000000000000000000008152600401611d5f90612b55565b60405180910390fd5b611d7460008383611ab8565b6001600360008473ffffffffffffffffffffffffffffffffffffffff1673ffffffffffffffffffffffffffffffffffffffff1681526020019081526020016000206000828254611dc49190612e24565b92505081905550816002600083815260200190815260200160002060006101000a81548173ffffffffffffffffffffffffffffffffffffffff021916908373ffffffffffffffffffffffffffffffffffffffff160217905550808273ffffffffffffffffffffffffffffffffffffffff16600073ffffffffffffffffffffffffffffffffffffffff167fddf252ad1be2c89b69c2b068fc378daa952ba7f163c4a11628f55a4df523b3ef60405160405180910390a45050565b600080823b905060008111915050919050565b828054611e9c90612fa7565b90600052602060002090601f016020900481019282611ebe5760008555611f05565b82601f10611ed757805160ff1916838001178555611f05565b82800160010185558215611f05579182015b82811115611f04578251825591602001919060010190611ee9565b5b509050611f129190611f16565b5090565b5b80821115611f2f576000816000905550600101611f17565b5090565b6000611f46611f4184612d81565b612d50565b905082815260208101848484011115611f5e57600080fd5b611f69848285612f65565b509392505050565b6000611f84611f7f84612db1565b612d50565b905082815260208101848484011115611f9c57600080fd5b611fa7848285612f65565b509392505050565b600081359050611fbe81613120565b92915050565b600081359050611fd381613137565b92915050565b600081359050611fe88161314e565b92915050565b600081359050611ffd81613165565b92915050565b60008151905061201281613165565b92915050565b600082601f83011261202957600080fd5b8135612039848260208601611f33565b91505092915050565b600082601f83011261205357600080fd5b8135612063848260208601611f71565b91505092915050565b60008135905061207b8161317c565b92915050565b6000815190506120908161317c565b92915050565b6000602082840312156120a857600080fd5b60006120b684828501611faf565b91505092915050565b6000602082840312156120d157600080fd5b60006120df84828501611fc4565b91505092915050565b600080604083850312156120fb57600080fd5b600061210985828601611faf565b925050602061211a85828601611faf565b9150509250929050565b60008060006060848603121561213957600080fd5b600061214786828701611faf565b935050602061215886828701611faf565b92505060406121698682870161206c565b9150509250925092565b6000806000806080858703121561218957600080fd5b600061219787828801611faf565b94505060206121a887828801611faf565b93505060406121b98782880161206c565b925050606085013567ffffffffffffffff8111156121d657600080fd5b6121e287828801612018565b91505092959194509250565b6000806040838503121561220157600080fd5b600061220f85828601611faf565b925050602061222085828601611fd9565b9150509250929050565b6000806040838503121561223d57600080fd5b600061224b85828601611faf565b925050602061225c8582860161206c565b9150509250929050565b60006020828403121561227857600080fd5b600061228684828501611fee565b91505092915050565b6000602082840312156122a157600080fd5b60006122af84828501612003565b91505092915050565b6000602082840312156122ca57600080fd5b600082013567ffffffffffffffff8111156122e457600080fd5b6122f084828501612042565b91505092915050565b60006020828403121561230b57600080fd5b60006123198482850161206c565b91505092915050565b60006020828403121561233457600080fd5b600061234284828501612081565b91505092915050565b61235481612ef1565b82525050565b61236381612edf565b82525050565b61237281612f03565b82525050565b600061238382612de1565b61238d8185612df7565b935061239d818560208601612f74565b6123a68161310f565b840191505092915050565b60006123bc82612dec565b6123c68185612e08565b93506123d6818560208601612f74565b6123df8161310f565b840191505092915050565b60006123f582612dec565b6123ff8185612e19565b935061240f818560208601612f74565b80840191505092915050565b6000612428603283612e08565b91507f4552433732313a207472616e7366657220746f206e6f6e20455243373231526560008301527f63656976657220696d706c656d656e74657200000000000000000000000000006020830152604082019050919050565b600061248e602683612e08565b91507f4f776e61626c653a206e6577206f776e657220697320746865207a65726f206160008301527f64647265737300000000000000000000000000000000000000000000000000006020830152604082019050919050565b60006124f4601c83612e08565b91507f4552433732313a20746f6b656e20616c7265616479206d696e746564000000006000830152602082019050919050565b6000612534602483612e08565b91507f4552433732313a207472616e7366657220746f20746865207a65726f2061646460008301527f72657373000000000000000000000000000000000000000000000000000000006020830152604082019050919050565b600061259a601983612e08565b91507f4552433732313a20617070726f766520746f2063616c6c6572000000000000006000830152602082019050919050565b60006125da602c83612e08565b91507f4552433732313a206f70657261746f7220717565727920666f72206e6f6e657860008301527f697374656e7420746f6b656e00000000000000000000000000000000000000006020830152604082019050919050565b6000612640603883612e08565b91507f4552433732313a20617070726f76652063616c6c6572206973206e6f74206f7760008301527f6e6572206e6f7220617070726f76656420666f7220616c6c00000000000000006020830152604082019050919050565b60006126a6602a83612e08565b91507f4552433732313a2062616c616e636520717565727920666f7220746865207a6560008301527f726f2061646472657373000000000000000000000000000000000000000000006020830152604082019050919050565b600061270c602983612e08565b91507f4552433732313a206f776e657220717565727920666f72206e6f6e657869737460008301527f656e7420746f6b656e00000000000000000000000000000000000000000000006020830152604082019050919050565b6000612772601883612e08565b91507f4d6178206d696e7420737570706c7920726561636865642100000000000000006000830152602082019050919050565b60006127b2602083612e08565b91507f4552433732313a206d696e7420746f20746865207a65726f20616464726573736000830152602082019050919050565b60006127f2602c83612e08565b91507f4552433732313a20617070726f76656420717565727920666f72206e6f6e657860008301527f697374656e7420746f6b656e00000000000000000000000000000000000000006020830152604082019050919050565b6000612858602083612e08565b91507f4f776e61626c653a2063616c6c6572206973206e6f7420746865206f776e65726000830152602082019050919050565b6000612898602983612e08565b91507f4552433732313a207472616e73666572206f6620746f6b656e2074686174206960008301527f73206e6f74206f776e00000000000000000000000000000000000000000000006020830152604082019050919050565b60006128fe602f83612e08565b91507f4552433732314d657461646174613a2055524920717565727920666f72206e6f60008301527f6e6578697374656e7420746f6b656e00000000000000000000000000000000006020830152604082019050919050565b6000612964602183612e08565b91507f4552433732313a20617070726f76616c20746f2063757272656e74206f776e6560008301527f72000000000000000000000000000000000000000000000000000000000000006020830152604082019050919050565b60006129ca603183612e08565b91507f4552433732313a207472616e736665722063616c6c6572206973206e6f74206f60008301527f776e6572206e6f7220617070726f7665640000000000000000000000000000006020830152604082019050919050565b612a2c81612f5b565b82525050565b6000612a3e82856123ea565b9150612a4a82846123ea565b91508190509392505050565b6000602082019050612a6b600083018461235a565b92915050565b6000602082019050612a86600083018461234b565b92915050565b6000608082019050612aa1600083018761235a565b612aae602083018661235a565b612abb6040830185612a23565b8181036060830152612acd8184612378565b905095945050505050565b6000602082019050612aed6000830184612369565b92915050565b60006020820190508181036000830152612b0d81846123b1565b905092915050565b60006020820190508181036000830152612b2e8161241b565b9050919050565b60006020820190508181036000830152612b4e81612481565b9050919050565b60006020820190508181036000830152612b6e816124e7565b9050919050565b60006020820190508181036000830152612b8e81612527565b9050919050565b60006020820190508181036000830152612bae8161258d565b9050919050565b60006020820190508181036000830152612bce816125cd565b9050919050565b60006020820190508181036000830152612bee81612633565b9050919050565b60006020820190508181036000830152612c0e81612699565b9050919050565b60006020820190508181036000830152612c2e816126ff565b9050919050565b60006020820190508181036000830152612c4e81612765565b9050919050565b60006020820190508181036000830152612c6e816127a5565b9050919050565b60006020820190508181036000830152612c8e816127e5565b9050919050565b60006020820190508181036000830152612cae8161284b565b9050919050565b60006020820190508181036000830152612cce8161288b565b9050919050565b60006020820190508181036000830152612cee816128f1565b9050919050565b60006020820190508181036000830152612d0e81612957565b9050919050565b60006020820190508181036000830152612d2e816129bd565b9050919050565b6000602082019050612d4a6000830184612a23565b92915050565b6000604051905081810181811067ffffffffffffffff82111715612d7757612d766130e0565b5b8060405250919050565b600067ffffffffffffffff821115612d9c57612d9b6130e0565b5b601f19601f8301169050602081019050919050565b600067ffffffffffffffff821115612dcc57612dcb6130e0565b5b601f19601f8301169050602081019050919050565b600081519050919050565b600081519050919050565b600082825260208201905092915050565b600082825260208201905092915050565b600081905092915050565b6000612e2f82612f5b565b9150612e3a83612f5b565b9250827fffffffffffffffffffffffffffffffffffffffffffffffffffffffffffffffff03821115612e6f57612e6e613053565b5b828201905092915050565b6000612e8582612f5b565b9150612e9083612f5b565b925082612ea057612e9f613082565b5b828204905092915050565b6000612eb682612f5b565b9150612ec183612f5b565b925082821015612ed457612ed3613053565b5b828203905092915050565b6000612eea82612f3b565b9050919050565b6000612efc82612f3b565b9050919050565b60008115159050919050565b60007fffffffff0000000000000000000000000000000000000000000000000000000082169050919050565b600073ffffffffffffffffffffffffffffffffffffffff82169050919050565b6000819050919050565b82818337600083830152505050565b60005b83811015612f92578082015181840152602081019050612f77565b83811115612fa1576000848401525b50505050565b60006002820490506001821680612fbf57607f821691505b60208210811415612fd357612fd26130b1565b5b50919050565b6000612fe482612f5b565b91507fffffffffffffffffffffffffffffffffffffffffffffffffffffffffffffffff82141561301757613016613053565b5b600182019050919050565b600061302d82612f5b565b915061303883612f5b565b92508261304857613047613082565b5b828206905092915050565b7f4e487b7100000000000000000000000000000000000000000000000000000000600052601160045260246000fd5b7f4e487b7100000000000000000000000000000000000000000000000000000000600052601260045260246000fd5b7f4e487b7100000000000000000000000000000000000000000000000000000000600052602260045260246000fd5b7f4e487b7100000000000000000000000000000000000000000000000000000000600052604160045260246000fd5b6000601f19601f8301169050919050565b61312981612edf565b811461313457600080fd5b50565b61314081612ef1565b811461314b57600080fd5b50565b61315781612f03565b811461316257600080fd5b50565b61316e81612f0f565b811461317957600080fd5b50565b61318581612f5b565b811461319057600080fd5b5056fea264697066735822122053efff9e0c084c9de6e39c3a8077626ad0dc6251d407194c506af3a994f53f6a64736f6c63430008000033608060405234801561001057600080fd5b5061002d61002261003260201b60201c565b61003a60201b60201c565b6100fe565b600033905090565b60008060009054906101000a900473ffffffffffffffffffffffffffffffffffffffff169050816000806101000a81548173ffffffffffffffffffffffffffffffffffffffff021916908373ffffffffffffffffffffffffffffffffffffffff1602179055508173ffffffffffffffffffffffffffffffffffffffff168173ffffffffffffffffffffffffffffffffffffffff167f8be0079c531659141344cd1fd0a4f28419497f9722a3daafe3b4186f6b6457e060405160405180910390a35050565b610bc08061010d6000396000f3fe6080604052600436106100555760003560e01c806351cff8d91461005a578063715018a6146100835780638da5cb5b1461009a578063e3a9db1a146100c5578063f2fde38b14610102578063f340fa011461012b575b600080fd5b34801561006657600080fd5b50610081600480360381019061007c91906107f5565b610147565b005b34801561008f57600080fd5b506100986102c7565b005b3480156100a657600080fd5b506100af61034f565b6040516100bc91906109b7565b60405180910390f35b3480156100d157600080fd5b506100ec60048036038101906100e791906107cc565b610378565b6040516100f99190610a52565b60405180910390f35b34801561010e57600080fd5b50610129600480360381019061012491906107cc565b6103c1565b005b610145600480360381019061014091906107cc565b6104b9565b005b61014f6105e2565b73ffffffffffffffffffffffffffffffffffffffff1661016d61034f565b73ffffffffffffffffffffffffffffffffffffffff16146101c3576040517f08c379a00000000000000000000000000000000000000000000000000000000081526004016101ba90610a32565b60405180910390fd5b6000600160008373ffffffffffffffffffffffffffffffffffffffff1673ffffffffffffffffffffffffffffffffffffffff1681526020019081526020016000205490506000600160008473ffffffffffffffffffffffffffffffffffffffff1673ffffffffffffffffffffffffffffffffffffffff16815260200190815260200160002081905550610275818373ffffffffffffffffffffffffffffffffffffffff166105ea90919063ffffffff16565b8173ffffffffffffffffffffffffffffffffffffffff167f7084f5476618d8e60b11ef0d7d3f06914655adb8793e28ff7f018d4c76d505d5826040516102bb9190610a52565b60405180910390a25050565b6102cf6105e2565b73ffffffffffffffffffffffffffffffffffffffff166102ed61034f565b73ffffffffffffffffffffffffffffffffffffffff1614610343576040517f08c379a000000000000000000000000000000000000000000000000000000000815260040161033a90610a32565b60405180910390fd5b61034d60006106de565b565b60008060009054906101000a900473ffffffffffffffffffffffffffffffffffffffff16905090565b6000600160008373ffffffffffffffffffffffffffffffffffffffff1673ffffffffffffffffffffffffffffffffffffffff168152602001908152602001600020549050919050565b6103c96105e2565b73ffffffffffffffffffffffffffffffffffffffff166103e761034f565b73ffffffffffffffffffffffffffffffffffffffff161461043d576040517f08c379a000000000000000000000000000000000000000000000000000000000815260040161043490610a32565b60405180910390fd5b600073ffffffffffffffffffffffffffffffffffffffff168173ffffffffffffffffffffffffffffffffffffffff1614156104ad576040517f08c379a00000000000000000000000000000000000000000000000000000000081526004016104a4906109d2565b60405180910390fd5b6104b6816106de565b50565b6104c16105e2565b73ffffffffffffffffffffffffffffffffffffffff166104df61034f565b73ffffffffffffffffffffffffffffffffffffffff1614610535576040517f08c379a000000000000000000000000000000000000000000000000000000000815260040161052c90610a32565b60405180910390fd5b600034905080600160008473ffffffffffffffffffffffffffffffffffffffff1673ffffffffffffffffffffffffffffffffffffffff16815260200190815260200160002060008282546105899190610a89565b925050819055508173ffffffffffffffffffffffffffffffffffffffff167f2da466a7b24304f47e87fa2e1e5a81b9831ce54fec19055ce277ca2f39ba42c4826040516105d69190610a52565b60405180910390a25050565b600033905090565b8047101561062d576040517f08c379a000000000000000000000000000000000000000000000000000000000815260040161062490610a12565b60405180910390fd5b60008273ffffffffffffffffffffffffffffffffffffffff1682604051610653906109a2565b60006040518083038185875af1925050503d8060008114610690576040519150601f19603f3d011682016040523d82523d6000602084013e610695565b606091505b50509050806106d9576040517f08c379a00000000000000000000000000000000000000000000000000000000081526004016106d0906109f2565b60405180910390fd5b505050565b60008060009054906101000a900473ffffffffffffffffffffffffffffffffffffffff169050816000806101000a81548173ffffffffffffffffffffffffffffffffffffffff021916908373ffffffffffffffffffffffffffffffffffffffff1602179055508173ffffffffffffffffffffffffffffffffffffffff168173ffffffffffffffffffffffffffffffffffffffff167f8be0079c531659141344cd1fd0a4f28419497f9722a3daafe3b4186f6b6457e060405160405180910390a35050565b6000813590506107b181610b5c565b92915050565b6000813590506107c681610b73565b92915050565b6000602082840312156107de57600080fd5b60006107ec848285016107a2565b91505092915050565b60006020828403121561080757600080fd5b6000610815848285016107b7565b91505092915050565b61082781610adf565b82525050565b600061083a602683610a78565b91507f4f776e61626c653a206e6577206f776e657220697320746865207a65726f206160008301527f64647265737300000000000000000000000000000000000000000000000000006020830152604082019050919050565b60006108a0603a83610a78565b91507f416464726573733a20756e61626c6520746f2073656e642076616c75652c207260008301527f6563697069656e74206d617920686176652072657665727465640000000000006020830152604082019050919050565b6000610906601d83610a78565b91507f416464726573733a20696e73756666696369656e742062616c616e63650000006000830152602082019050919050565b6000610946602083610a78565b91507f4f776e61626c653a2063616c6c6572206973206e6f7420746865206f776e65726000830152602082019050919050565b6000610986600083610a6d565b9150600082019050919050565b61099c81610b23565b82525050565b60006109ad82610979565b9150819050919050565b60006020820190506109cc600083018461081e565b92915050565b600060208201905081810360008301526109eb8161082d565b9050919050565b60006020820190508181036000830152610a0b81610893565b9050919050565b60006020820190508181036000830152610a2b816108f9565b9050919050565b60006020820190508181036000830152610a4b81610939565b9050919050565b6000602082019050610a676000830184610993565b92915050565b600081905092915050565b600082825260208201905092915050565b6000610a9482610b23565b9150610a9f83610b23565b9250827fffffffffffffffffffffffffffffffffffffffffffffffffffffffffffffffff03821115610ad457610ad3610b2d565b5b828201905092915050565b6000610aea82610b03565b9050919050565b6000610afc82610b03565b9050919050565b600073ffffffffffffffffffffffffffffffffffffffff82169050919050565b6000819050919050565b7f4e487b7100000000000000000000000000000000000000000000000000000000600052601160045260246000fd5b610b6581610adf565b8114610b7057600080fd5b50565b610b7c81610af1565b8114610b8757600080fd5b5056fea26469706673582212204e8ab707adc9ee645b828ddc4f791bd246fea3a80e8eeba1ce50ca1d3c28c2cb64736f6c63430008000033",
  "linkReferences": {},
  "deployedLinkReferences": {}
}